{
  "_format": "hh-sol-artifact-1",
  "contractName": "Vault",
  "sourceName": "contracts/Vault.sol",
  "abi": [
    {
      "inputs": [],
      "stateMutability": "nonpayable",
      "type": "constructor"
    },
    {
      "inputs": [
        {
          "internalType": "address",
          "name": "spender",
          "type": "address"
        },
        {
          "internalType": "uint256",
          "name": "allowance",
          "type": "uint256"
        },
        {
          "internalType": "uint256",
          "name": "needed",
          "type": "uint256"
        }
      ],
      "name": "ERC20InsufficientAllowance",
      "type": "error"
    },
    {
      "inputs": [
        {
          "internalType": "address",
          "name": "sender",
          "type": "address"
        },
        {
          "internalType": "uint256",
          "name": "balance",
          "type": "uint256"
        },
        {
          "internalType": "uint256",
          "name": "needed",
          "type": "uint256"
        }
      ],
      "name": "ERC20InsufficientBalance",
      "type": "error"
    },
    {
      "inputs": [
        {
          "internalType": "address",
          "name": "approver",
          "type": "address"
        }
      ],
      "name": "ERC20InvalidApprover",
      "type": "error"
    },
    {
      "inputs": [
        {
          "internalType": "address",
          "name": "receiver",
          "type": "address"
        }
      ],
      "name": "ERC20InvalidReceiver",
      "type": "error"
    },
    {
      "inputs": [
        {
          "internalType": "address",
          "name": "sender",
          "type": "address"
        }
      ],
      "name": "ERC20InvalidSender",
      "type": "error"
    },
    {
      "inputs": [
        {
          "internalType": "address",
          "name": "spender",
          "type": "address"
        }
      ],
      "name": "ERC20InvalidSpender",
      "type": "error"
    },
    {
      "anonymous": false,
      "inputs": [
        {
          "indexed": true,
          "internalType": "address",
          "name": "owner",
          "type": "address"
        },
        {
          "indexed": true,
          "internalType": "address",
          "name": "spender",
          "type": "address"
        },
        {
          "indexed": false,
          "internalType": "uint256",
          "name": "value",
          "type": "uint256"
        }
      ],
      "name": "Approval",
      "type": "event"
    },
    {
      "anonymous": false,
      "inputs": [
        {
          "indexed": true,
          "internalType": "address",
          "name": "from",
          "type": "address"
        },
        {
          "indexed": true,
          "internalType": "address",
          "name": "to",
          "type": "address"
        },
        {
          "indexed": false,
          "internalType": "uint256",
          "name": "value",
          "type": "uint256"
        }
      ],
      "name": "Transfer",
      "type": "event"
    },
    {
      "inputs": [
        {
          "internalType": "address",
          "name": "owner",
          "type": "address"
        },
        {
          "internalType": "address",
          "name": "spender",
          "type": "address"
        }
      ],
      "name": "allowance",
      "outputs": [
        {
          "internalType": "uint256",
          "name": "",
          "type": "uint256"
        }
      ],
      "stateMutability": "view",
      "type": "function"
    },
    {
      "inputs": [
        {
          "internalType": "address",
          "name": "spender",
          "type": "address"
        },
        {
          "internalType": "uint256",
          "name": "value",
          "type": "uint256"
        }
      ],
      "name": "approve",
      "outputs": [
        {
          "internalType": "bool",
          "name": "",
          "type": "bool"
        }
      ],
      "stateMutability": "nonpayable",
      "type": "function"
    },
    {
      "inputs": [
        {
          "internalType": "address",
          "name": "account",
          "type": "address"
        }
      ],
      "name": "balanceOf",
      "outputs": [
        {
          "internalType": "uint256",
          "name": "",
          "type": "uint256"
        }
      ],
      "stateMutability": "view",
      "type": "function"
    },
    {
      "inputs": [],
      "name": "decimals",
      "outputs": [
        {
          "internalType": "uint8",
          "name": "",
          "type": "uint8"
        }
      ],
      "stateMutability": "view",
      "type": "function"
    },
    {
      "inputs": [],
      "name": "deposit",
      "outputs": [],
      "stateMutability": "payable",
      "type": "function"
    },
    {
      "inputs": [],
      "name": "getFromStrategy",
      "outputs": [],
      "stateMutability": "nonpayable",
      "type": "function"
    },
    {
      "inputs": [],
      "name": "getStrategyBalance",
      "outputs": [
        {
          "internalType": "uint256",
          "name": "amount",
          "type": "uint256"
        },
        {
          "internalType": "address",
          "name": "strat",
          "type": "address"
        }
      ],
      "stateMutability": "view",
      "type": "function"
    },
    {
      "inputs": [],
      "name": "name",
      "outputs": [
        {
          "internalType": "string",
          "name": "",
          "type": "string"
        }
      ],
      "stateMutability": "view",
      "type": "function"
    },
    {
      "inputs": [],
      "name": "owner",
      "outputs": [
        {
          "internalType": "address",
          "name": "",
          "type": "address"
        }
      ],
      "stateMutability": "view",
      "type": "function"
    },
    {
      "inputs": [],
      "name": "sendToStrategy",
      "outputs": [],
      "stateMutability": "nonpayable",
      "type": "function"
    },
    {
      "inputs": [
        {
          "internalType": "uint256",
          "name": "_time",
          "type": "uint256"
        }
      ],
      "name": "setTimeForDeposit",
      "outputs": [],
      "stateMutability": "nonpayable",
      "type": "function"
    },
    {
      "inputs": [],
      "name": "startEpoch",
      "outputs": [],
      "stateMutability": "nonpayable",
      "type": "function"
    },
    {
      "inputs": [],
      "name": "symbol",
      "outputs": [
        {
          "internalType": "string",
          "name": "",
          "type": "string"
        }
      ],
      "stateMutability": "view",
      "type": "function"
    },
    {
      "inputs": [],
      "name": "testSend",
      "outputs": [],
      "stateMutability": "payable",
      "type": "function"
    },
    {
      "inputs": [],
      "name": "totalSupply",
      "outputs": [
        {
          "internalType": "uint256",
          "name": "",
          "type": "uint256"
        }
      ],
      "stateMutability": "view",
      "type": "function"
    },
    {
      "inputs": [
        {
          "internalType": "address",
          "name": "to",
          "type": "address"
        },
        {
          "internalType": "uint256",
          "name": "value",
          "type": "uint256"
        }
      ],
      "name": "transfer",
      "outputs": [
        {
          "internalType": "bool",
          "name": "",
          "type": "bool"
        }
      ],
      "stateMutability": "nonpayable",
      "type": "function"
    },
    {
      "inputs": [
        {
          "internalType": "address",
          "name": "from",
          "type": "address"
        },
        {
          "internalType": "address",
          "name": "to",
          "type": "address"
        },
        {
          "internalType": "uint256",
          "name": "value",
          "type": "uint256"
        }
      ],
      "name": "transferFrom",
      "outputs": [
        {
          "internalType": "bool",
          "name": "",
          "type": "bool"
        }
      ],
      "stateMutability": "nonpayable",
      "type": "function"
    },
    {
      "inputs": [],
      "name": "withdraw",
      "outputs": [],
      "stateMutability": "nonpayable",
      "type": "function"
    },
    {
      "stateMutability": "payable",
      "type": "receive"
    }
  ],
  "bytecode": "0x6080604052600a600755600060095562015180600a553480156200002257600080fd5b506040518060400160405280601881526020017f4c69717569646974792050726f766964657220546f6b656e00000000000000008152506040518060400160405280600681526020017f4c502d544b4e00000000000000000000000000000000000000000000000000008152508160039081620000a09190620003fd565b508060049081620000b29190620003fd565b50505033600560006101000a81548173ffffffffffffffffffffffffffffffffffffffff021916908373ffffffffffffffffffffffffffffffffffffffff16021790555030604051620001059062000175565b62000111919062000529565b604051809103906000f0801580156200012e573d6000803e3d6000fd5b50600660006101000a81548173ffffffffffffffffffffffffffffffffffffffff021916908373ffffffffffffffffffffffffffffffffffffffff16021790555062000546565b61215780620021de83390190565b600081519050919050565b7f4e487b7100000000000000000000000000000000000000000000000000000000600052604160045260246000fd5b7f4e487b7100000000000000000000000000000000000000000000000000000000600052602260045260246000fd5b600060028204905060018216806200020557607f821691505b6020821081036200021b576200021a620001bd565b5b50919050565b60008190508160005260206000209050919050565b60006020601f8301049050919050565b600082821b905092915050565b600060088302620002857fffffffffffffffffffffffffffffffffffffffffffffffffffffffffffffffff8262000246565b62000291868362000246565b95508019841693508086168417925050509392505050565b6000819050919050565b6000819050919050565b6000620002de620002d8620002d284620002a9565b620002b3565b620002a9565b9050919050565b6000819050919050565b620002fa83620002bd565b620003126200030982620002e5565b84845462000253565b825550505050565b600090565b620003296200031a565b62000336818484620002ef565b505050565b5b818110156200035e57620003526000826200031f565b6001810190506200033c565b5050565b601f821115620003ad57620003778162000221565b620003828462000236565b8101602085101562000392578190505b620003aa620003a18562000236565b8301826200033b565b50505b505050565b600082821c905092915050565b6000620003d260001984600802620003b2565b1980831691505092915050565b6000620003ed8383620003bf565b9150826002028217905092915050565b620004088262000183565b67ffffffffffffffff8111156200042457620004236200018e565b5b620004308254620001ec565b6200043d82828562000362565b600060209050601f83116001811462000475576000841562000460578287015190505b6200046c8582620003df565b865550620004dc565b601f198416620004858662000221565b60005b82811015620004af5784890151825560018201915060208501945060208101905062000488565b86831015620004cf5784890151620004cb601f891682620003bf565b8355505b6001600288020188555050505b505050505050565b600073ffffffffffffffffffffffffffffffffffffffff82169050919050565b60006200051182620004e4565b9050919050565b620005238162000504565b82525050565b600060208201905062000540600083018462000518565b92915050565b611c8880620005566000396000f3fe60806040526004361061010d5760003560e01c80638da5cb5b11610095578063b90f3f3b11610064578063b90f3f3b14610352578063c07aaf0f1461037e578063c99c8efe14610388578063d0e30db01461039f578063dd62ed3e146103a957610114565b80638da5cb5b146102a857806395d89b41146102d3578063a2c8b177146102fe578063a9059cbb1461031557610114565b8063313ce567116100dc578063313ce567146101e95780633ccfd60b146102145780635c1587a31461022b57806365344bbd1461025457806370a082311461026b57610114565b806306fdde0314610119578063095ea7b31461014457806318160ddd1461018157806323b872dd146101ac57610114565b3661011457005b600080fd5b34801561012557600080fd5b5061012e6103e6565b60405161013b9190611696565b60405180910390f35b34801561015057600080fd5b5061016b60048036038101906101669190611751565b610478565b60405161017891906117ac565b60405180910390f35b34801561018d57600080fd5b5061019661049b565b6040516101a391906117d6565b60405180910390f35b3480156101b857600080fd5b506101d360048036038101906101ce91906117f1565b6104a5565b6040516101e091906117ac565b60405180910390f35b3480156101f557600080fd5b506101fe6104d4565b60405161020b9190611860565b60405180910390f35b34801561022057600080fd5b506102296104dd565b005b34801561023757600080fd5b50610252600480360381019061024d919061187b565b6106b8565b005b34801561026057600080fd5b50610269610752565b005b34801561027757600080fd5b50610292600480360381019061028d91906118a8565b61099c565b60405161029f91906117d6565b60405180910390f35b3480156102b457600080fd5b506102bd6109e4565b6040516102ca91906118e4565b60405180910390f35b3480156102df57600080fd5b506102e8610a0a565b6040516102f59190611696565b60405180910390f35b34801561030a57600080fd5b50610313610a9c565b005b34801561032157600080fd5b5061033c60048036038101906103379190611751565b610b35565b60405161034991906117ac565b60405180910390f35b34801561035e57600080fd5b50610367610b58565b6040516103759291906118ff565b60405180910390f35b610386610c17565b005b34801561039457600080fd5b5061039d610c19565b005b6103a7610dad565b005b3480156103b557600080fd5b506103d060048036038101906103cb9190611928565b610edd565b6040516103dd91906117d6565b60405180910390f35b6060600380546103f590611997565b80601f016020809104026020016040519081016040528092919081815260200182805461042190611997565b801561046e5780601f106104435761010080835404028352916020019161046e565b820191906000526020600020905b81548152906001019060200180831161045157829003601f168201915b5050505050905090565b600080610483610f64565b9050610490818585610f6c565b600191505092915050565b6000600254905090565b6000806104b0610f64565b90506104bd858285610f7e565b6104c8858585611012565b60019150509392505050565b60006012905090565b42600a546009546104ee91906119f7565b101580156104fe57504260095411155b61053d576040517f08c379a000000000000000000000000000000000000000000000000000000000815260040161053490611a77565b60405180910390fd5b600033905060003073ffffffffffffffffffffffffffffffffffffffff166370a08231336040518263ffffffff1660e01b815260040161057d91906118e4565b602060405180830381865afa15801561059a573d6000803e3d6000fd5b505050506040513d601f19601f820116820180604052508101906105be9190611aac565b9050600081116105cd57600080fd5b60003073ffffffffffffffffffffffffffffffffffffffff166318160ddd6040518163ffffffff1660e01b8152600401602060405180830381865afa15801561061a573d6000803e3d6000fd5b505050506040513d601f19601f8201168201806040525081019061063e9190611aac565b9050600047905060008282856106549190611ad9565b61065e9190611b4a565b905061066a8585611106565b8473ffffffffffffffffffffffffffffffffffffffff166108fc829081150290604051600060405180830381858888f193505050501580156106b0573d6000803e3d6000fd5b505050505050565b600560009054906101000a900473ffffffffffffffffffffffffffffffffffffffff1673ffffffffffffffffffffffffffffffffffffffff163373ffffffffffffffffffffffffffffffffffffffff1614610748576040517f08c379a000000000000000000000000000000000000000000000000000000000815260040161073f90611bc7565b60405180910390fd5b80600a8190555050565b600560009054906101000a900473ffffffffffffffffffffffffffffffffffffffff1673ffffffffffffffffffffffffffffffffffffffff163373ffffffffffffffffffffffffffffffffffffffff16146107e2576040517f08c379a00000000000000000000000000000000000000000000000000000000081526004016107d990611bc7565b60405180910390fd5b6000600854116107f157600080fd5b600660009054906101000a900473ffffffffffffffffffffffffffffffffffffffff1673ffffffffffffffffffffffffffffffffffffffff1663e44055d06040518163ffffffff1660e01b8152600401600060405180830381600087803b15801561085b57600080fd5b505af115801561086f573d6000803e3d6000fd5b50505050600660009054906101000a900473ffffffffffffffffffffffffffffffffffffffff1673ffffffffffffffffffffffffffffffffffffffff1663a3adb41f6040518163ffffffff1660e01b8152600401600060405180830381600087803b1580156108dd57600080fd5b505af11580156108f1573d6000803e3d6000fd5b505050506000600854476109059190611be7565b90506000811115610999576000600560009054906101000a900473ffffffffffffffffffffffffffffffffffffffff1690508073ffffffffffffffffffffffffffffffffffffffff166108fc6064600754856109619190611ad9565b61096b9190611b4a565b9081150290604051600060405180830381858888f19350505050158015610996573d6000803e3d6000fd5b50505b50565b60008060008373ffffffffffffffffffffffffffffffffffffffff1673ffffffffffffffffffffffffffffffffffffffff168152602001908152602001600020549050919050565b600560009054906101000a900473ffffffffffffffffffffffffffffffffffffffff1681565b606060048054610a1990611997565b80601f0160208091040260200160405190810160405280929190818152602001828054610a4590611997565b8015610a925780601f10610a6757610100808354040283529160200191610a92565b820191906000526020600020905b815481529060010190602001808311610a7557829003601f168201915b5050505050905090565b600560009054906101000a900473ffffffffffffffffffffffffffffffffffffffff1673ffffffffffffffffffffffffffffffffffffffff163373ffffffffffffffffffffffffffffffffffffffff1614610b2c576040517f08c379a0000000000000000000000000000000000000000000000000000000008152600401610b2390611bc7565b60405180910390fd5b42600981905550565b600080610b40610f64565b9050610b4d818585611012565b600191505092915050565b600080600660009054906101000a900473ffffffffffffffffffffffffffffffffffffffff1673ffffffffffffffffffffffffffffffffffffffff166312065fe06040518163ffffffff1660e01b8152600401602060405180830381865afa158015610bc8573d6000803e3d6000fd5b505050506040513d601f19601f82011682018060405250810190610bec9190611aac565b9150600660009054906101000a900473ffffffffffffffffffffffffffffffffffffffff1690509091565b565b600560009054906101000a900473ffffffffffffffffffffffffffffffffffffffff1673ffffffffffffffffffffffffffffffffffffffff163373ffffffffffffffffffffffffffffffffffffffff1614610ca9576040517f08c379a0000000000000000000000000000000000000000000000000000000008152600401610ca090611bc7565b60405180910390fd5b60006009819055506000600660009054906101000a900473ffffffffffffffffffffffffffffffffffffffff169050476008819055508073ffffffffffffffffffffffffffffffffffffffff166108fc6008549081150290604051600060405180830381858888f19350505050158015610d27573d6000803e3d6000fd5b50600660009054906101000a900473ffffffffffffffffffffffffffffffffffffffff1673ffffffffffffffffffffffffffffffffffffffff166359f922246040518163ffffffff1660e01b8152600401600060405180830381600087803b158015610d9257600080fd5b505af1158015610da6573d6000803e3d6000fd5b5050505050565b42600a54600954610dbe91906119f7565b10158015610dce57504260095411155b610e0d576040517f08c379a0000000000000000000000000000000000000000000000000000000008152600401610e0490611a77565b60405180910390fd5b600034905060008111610e1f57600080fd5b60003073ffffffffffffffffffffffffffffffffffffffff166318160ddd6040518163ffffffff1660e01b8152600401602060405180830381865afa158015610e6c573d6000803e3d6000fd5b505050506040513d601f19601f82011682018060405250810190610e909190611aac565b905060008247610ea09190611be7565b90506000808203610eb357839050610ecd565b818385610ec09190611ad9565b610eca9190611b4a565b90505b610ed73382611188565b50505050565b6000600160008473ffffffffffffffffffffffffffffffffffffffff1673ffffffffffffffffffffffffffffffffffffffff16815260200190815260200160002060008373ffffffffffffffffffffffffffffffffffffffff1673ffffffffffffffffffffffffffffffffffffffff16815260200190815260200160002054905092915050565b600033905090565b610f79838383600161120a565b505050565b6000610f8a8484610edd565b90507fffffffffffffffffffffffffffffffffffffffffffffffffffffffffffffffff811461100c5781811015610ffc578281836040517ffb8f41b2000000000000000000000000000000000000000000000000000000008152600401610ff393929190611c1b565b60405180910390fd5b61100b8484848403600061120a565b5b50505050565b600073ffffffffffffffffffffffffffffffffffffffff168373ffffffffffffffffffffffffffffffffffffffff16036110845760006040517f96c6fd1e00000000000000000000000000000000000000000000000000000000815260040161107b91906118e4565b60405180910390fd5b600073ffffffffffffffffffffffffffffffffffffffff168273ffffffffffffffffffffffffffffffffffffffff16036110f65760006040517fec442f050000000000000000000000000000000000000000000000000000000081526004016110ed91906118e4565b60405180910390fd5b6111018383836113e1565b505050565b600073ffffffffffffffffffffffffffffffffffffffff168273ffffffffffffffffffffffffffffffffffffffff16036111785760006040517f96c6fd1e00000000000000000000000000000000000000000000000000000000815260040161116f91906118e4565b60405180910390fd5b611184826000836113e1565b5050565b600073ffffffffffffffffffffffffffffffffffffffff168273ffffffffffffffffffffffffffffffffffffffff16036111fa5760006040517fec442f050000000000000000000000000000000000000000000000000000000081526004016111f191906118e4565b60405180910390fd5b611206600083836113e1565b5050565b600073ffffffffffffffffffffffffffffffffffffffff168473ffffffffffffffffffffffffffffffffffffffff160361127c5760006040517fe602df0500000000000000000000000000000000000000000000000000000000815260040161127391906118e4565b60405180910390fd5b600073ffffffffffffffffffffffffffffffffffffffff168373ffffffffffffffffffffffffffffffffffffffff16036112ee5760006040517f94280d620000000000000000000000000000000000000000000000000000000081526004016112e591906118e4565b60405180910390fd5b81600160008673ffffffffffffffffffffffffffffffffffffffff1673ffffffffffffffffffffffffffffffffffffffff16815260200190815260200160002060008573ffffffffffffffffffffffffffffffffffffffff1673ffffffffffffffffffffffffffffffffffffffff1681526020019081526020016000208190555080156113db578273ffffffffffffffffffffffffffffffffffffffff168473ffffffffffffffffffffffffffffffffffffffff167f8c5be1e5ebec7d5bd14f71427d1e84f3dd0314c0f7b2291e5b200ac8c7c3b925846040516113d291906117d6565b60405180910390a35b50505050565b600073ffffffffffffffffffffffffffffffffffffffff168373ffffffffffffffffffffffffffffffffffffffff160361143357806002600082825461142791906119f7565b92505081905550611506565b60008060008573ffffffffffffffffffffffffffffffffffffffff1673ffffffffffffffffffffffffffffffffffffffff168152602001908152602001600020549050818110156114bf578381836040517fe450d38c0000000000000000000000000000000000000000000000000000000081526004016114b693929190611c1b565b60405180910390fd5b8181036000808673ffffffffffffffffffffffffffffffffffffffff1673ffffffffffffffffffffffffffffffffffffffff16815260200190815260200160002081905550505b600073ffffffffffffffffffffffffffffffffffffffff168273ffffffffffffffffffffffffffffffffffffffff160361154f578060026000828254039250508190555061159c565b806000808473ffffffffffffffffffffffffffffffffffffffff1673ffffffffffffffffffffffffffffffffffffffff168152602001908152602001600020600082825401925050819055505b8173ffffffffffffffffffffffffffffffffffffffff168373ffffffffffffffffffffffffffffffffffffffff167fddf252ad1be2c89b69c2b068fc378daa952ba7f163c4a11628f55a4df523b3ef836040516115f991906117d6565b60405180910390a3505050565b600081519050919050565b600082825260208201905092915050565b60005b83811015611640578082015181840152602081019050611625565b60008484015250505050565b6000601f19601f8301169050919050565b600061166882611606565b6116728185611611565b9350611682818560208601611622565b61168b8161164c565b840191505092915050565b600060208201905081810360008301526116b0818461165d565b905092915050565b600080fd5b600073ffffffffffffffffffffffffffffffffffffffff82169050919050565b60006116e8826116bd565b9050919050565b6116f8816116dd565b811461170357600080fd5b50565b600081359050611715816116ef565b92915050565b6000819050919050565b61172e8161171b565b811461173957600080fd5b50565b60008135905061174b81611725565b92915050565b60008060408385031215611768576117676116b8565b5b600061177685828601611706565b92505060206117878582860161173c565b9150509250929050565b60008115159050919050565b6117a681611791565b82525050565b60006020820190506117c1600083018461179d565b92915050565b6117d08161171b565b82525050565b60006020820190506117eb60008301846117c7565b92915050565b60008060006060848603121561180a576118096116b8565b5b600061181886828701611706565b935050602061182986828701611706565b925050604061183a8682870161173c565b9150509250925092565b600060ff82169050919050565b61185a81611844565b82525050565b60006020820190506118756000830184611851565b92915050565b600060208284031215611891576118906116b8565b5b600061189f8482850161173c565b91505092915050565b6000602082840312156118be576118bd6116b8565b5b60006118cc84828501611706565b91505092915050565b6118de816116dd565b82525050565b60006020820190506118f960008301846118d5565b92915050565b600060408201905061191460008301856117c7565b61192160208301846118d5565b9392505050565b6000806040838503121561193f5761193e6116b8565b5b600061194d85828601611706565b925050602061195e85828601611706565b9150509250929050565b7f4e487b7100000000000000000000000000000000000000000000000000000000600052602260045260246000fd5b600060028204905060018216806119af57607f821691505b6020821081036119c2576119c1611968565b5b50919050565b7f4e487b7100000000000000000000000000000000000000000000000000000000600052601160045260246000fd5b6000611a028261171b565b9150611a0d8361171b565b9250828201905080821115611a2557611a246119c8565b5b92915050565b7f45706f6368206e6f742073746172746564210000000000000000000000000000600082015250565b6000611a61601283611611565b9150611a6c82611a2b565b602082019050919050565b60006020820190508181036000830152611a9081611a54565b9050919050565b600081519050611aa681611725565b92915050565b600060208284031215611ac257611ac16116b8565b5b6000611ad084828501611a97565b91505092915050565b6000611ae48261171b565b9150611aef8361171b565b9250828202611afd8161171b565b91508282048414831517611b1457611b136119c8565b5b5092915050565b7f4e487b7100000000000000000000000000000000000000000000000000000000600052601260045260246000fd5b6000611b558261171b565b9150611b608361171b565b925082611b7057611b6f611b1b565b5b828204905092915050565b7f596f7520617265206e6f7420746865204f776e65722100000000000000000000600082015250565b6000611bb1601683611611565b9150611bbc82611b7b565b602082019050919050565b60006020820190508181036000830152611be081611ba4565b9050919050565b6000611bf28261171b565b9150611bfd8361171b565b9250828203905081811115611c1557611c146119c8565b5b92915050565b6000606082019050611c3060008301866118d5565b611c3d60208301856117c7565b611c4a60408301846117c7565b94935050505056fea26469706673582212206a8efd66ffa1e91bf0735ea5f28742f3b673a1d17bb5a24a9157dedf44885a9264736f6c6343000817003360806040523480156200001157600080fd5b50604051620021573803806200215783398181016040528101906200003791906200021d565b80600260006101000a81548173ffffffffffffffffffffffffffffffffffffffff021916908373ffffffffffffffffffffffffffffffffffffffff16021790555033600360006101000a81548173ffffffffffffffffffffffffffffffffffffffff021916908373ffffffffffffffffffffffffffffffffffffffff160217905550604051620000c79062000197565b604051809103906000f080158015620000e4573d6000803e3d6000fd5b506000806101000a81548173ffffffffffffffffffffffffffffffffffffffff021916908373ffffffffffffffffffffffffffffffffffffffff1602179055506040516200013290620001a5565b604051809103906000f0801580156200014f573d6000803e3d6000fd5b50600160006101000a81548173ffffffffffffffffffffffffffffffffffffffff021916908373ffffffffffffffffffffffffffffffffffffffff160217905550506200024f565b610812806200175583390190565b6101f08062001f6783390190565b600080fd5b600073ffffffffffffffffffffffffffffffffffffffff82169050919050565b6000620001e582620001b8565b9050919050565b620001f781620001d8565b81146200020357600080fd5b50565b6000815190506200021781620001ec565b92915050565b600060208284031215620002365762000235620001b3565b5b6000620002468482850162000206565b91505092915050565b6114f6806200025f6000396000f3fe60806040526004361061007f5760003560e01c806359f922241161004e57806359f92224146101495780638da5cb5b14610160578063a3adb41f1461018b578063e44055d0146101a257610086565b806312065fe01461008b57806316a0b548146100b65780633b4567b0146100f3578063532785c71461011e57610086565b3661008657005b600080fd5b34801561009757600080fd5b506100a06101b9565b6040516100ad9190610ae6565b60405180910390f35b3480156100c257600080fd5b506100dd60048036038101906100d89190610c50565b6101c1565b6040516100ea9190610f0e565b60405180910390f35b3480156100ff57600080fd5b506101086103a6565b6040516101159190610f8f565b60405180910390f35b34801561012a57600080fd5b506101336103cc565b6040516101409190610fdd565b60405180910390f35b34801561015557600080fd5b5061015e6103f0565b005b34801561016c57600080fd5b506101756106fa565b6040516101829190611007565b60405180910390f35b34801561019757600080fd5b506101a0610720565b005b3480156101ae57600080fd5b506101b7610821565b005b600047905090565b6101c9610977565b6101d1610977565b888160000181815250506000816020019073ffffffffffffffffffffffffffffffffffffffff16908173ffffffffffffffffffffffffffffffffffffffff168152505087816040019073ffffffffffffffffffffffffffffffffffffffff16908173ffffffffffffffffffffffffffffffffffffffff16815250506000816060019073ffffffffffffffffffffffffffffffffffffffff16908173ffffffffffffffffffffffffffffffffffffffff16815250506000816080018181525050868160a00181815250506040518060c001604052808767ffffffffffffffff168152602001866fffffffffffffffffffffffffffffffff16815260200185151581526020017382af49447d8a07e3bd95bd0d56f35241523fbab173ffffffffffffffffffffffffffffffffffffffff16815260200173af88d065e77c8cc2239327c5edb3a432268e583173ffffffffffffffffffffffffffffffffffffffff16815260200173af88d065e77c8cc2239327c5edb3a432268e583173ffffffffffffffffffffffffffffffffffffffff168152508160c00181905250828160e00181815250506040518060600160405280602a8152602001611497602a913981610100018190525080915050979650505050505050565b600160009054906101000a900473ffffffffffffffffffffffffffffffffffffffff1681565b60008054906101000a900473ffffffffffffffffffffffffffffffffffffffff1681565b600260009054906101000a900473ffffffffffffffffffffffffffffffffffffffff1673ffffffffffffffffffffffffffffffffffffffff163373ffffffffffffffffffffffffffffffffffffffff1614610480576040517f08c379a00000000000000000000000000000000000000000000000000000000081526004016104779061107f565b60405180910390fd5b60008060009054906101000a900473ffffffffffffffffffffffffffffffffffffffff1690508073ffffffffffffffffffffffffffffffffffffffff166108fc479081150290604051600060405180830381858888f193505050501580156104ec573d6000803e3d6000fd5b506000600267ffffffffffffffff81111561050a5761050961109f565b5b60405190808252806020026020018201604052801561054357816020015b610530610a0b565b8152602001906001900390816105285790505b50905061054e610a0b565b600061056f60008060006365aa2c00689d3595ab2438d000006000806101c1565b905060018260000190600181111561058a576105896110ce565b5b9081600181111561059e5761059d6110ce565b5b815250506000600167ffffffffffffffff8111156105bf576105be61109f565b5b6040519080825280602002602001820160405280156105f857816020015b6105e5610977565b8152602001906001900390816105dd5790505b50905081816000815181106106105761060f6110fd565b5b60200260200101819052508083602001819052508284600081518110610639576106386110fd565b5b602002602001018190525060008054906101000a900473ffffffffffffffffffffffffffffffffffffffff1673ffffffffffffffffffffffffffffffffffffffff1663e01bd77485600160009054906101000a900473ffffffffffffffffffffffffffffffffffffffff166040518363ffffffff1660e01b81526004016106c19291906113fb565b600060405180830381600087803b1580156106db57600080fd5b505af11580156106ef573d6000803e3d6000fd5b505050505050505050565b600360009054906101000a900473ffffffffffffffffffffffffffffffffffffffff1681565b600260009054906101000a900473ffffffffffffffffffffffffffffffffffffffff1673ffffffffffffffffffffffffffffffffffffffff163373ffffffffffffffffffffffffffffffffffffffff16146107b0576040517f08c379a00000000000000000000000000000000000000000000000000000000081526004016107a79061107f565b60405180910390fd5b6000600260009054906101000a900473ffffffffffffffffffffffffffffffffffffffff1690508073ffffffffffffffffffffffffffffffffffffffff166108fc479081150290604051600060405180830381858888f1935050505015801561081d573d6000803e3d6000fd5b5050565b600260009054906101000a900473ffffffffffffffffffffffffffffffffffffffff1673ffffffffffffffffffffffffffffffffffffffff163373ffffffffffffffffffffffffffffffffffffffff16146108b1576040517f08c379a00000000000000000000000000000000000000000000000000000000081526004016108a89061107f565b60405180910390fd5b600160009054906101000a900473ffffffffffffffffffffffffffffffffffffffff1673ffffffffffffffffffffffffffffffffffffffff1663bba06f27600160009054906101000a900473ffffffffffffffffffffffffffffffffffffffff1660006040518363ffffffff1660e01b815260040161093192919061142b565b6020604051808303816000875af1158015610950573d6000803e3d6000fd5b505050506040513d601f19601f820116820180604052508101906109749190611469565b50565b60405180610120016040528060008152602001600073ffffffffffffffffffffffffffffffffffffffff168152602001600073ffffffffffffffffffffffffffffffffffffffff168152602001600073ffffffffffffffffffffffffffffffffffffffff16815260200160008152602001600081526020016109f7610a37565b815260200160008152602001606081525090565b604051806040016040528060006001811115610a2a57610a296110ce565b5b8152602001606081525090565b6040518060c00160405280600067ffffffffffffffff16815260200160006fffffffffffffffffffffffffffffffff168152602001600015158152602001600073ffffffffffffffffffffffffffffffffffffffff168152602001600073ffffffffffffffffffffffffffffffffffffffff168152602001600073ffffffffffffffffffffffffffffffffffffffff1681525090565b6000819050919050565b610ae081610acd565b82525050565b6000602082019050610afb6000830184610ad7565b92915050565b600080fd5b610b0f81610acd565b8114610b1a57600080fd5b50565b600081359050610b2c81610b06565b92915050565b600073ffffffffffffffffffffffffffffffffffffffff82169050919050565b6000610b5d82610b32565b9050919050565b610b6d81610b52565b8114610b7857600080fd5b50565b600081359050610b8a81610b64565b92915050565b600067ffffffffffffffff82169050919050565b610bad81610b90565b8114610bb857600080fd5b50565b600081359050610bca81610ba4565b92915050565b60006fffffffffffffffffffffffffffffffff82169050919050565b610bf581610bd0565b8114610c0057600080fd5b50565b600081359050610c1281610bec565b92915050565b60008115159050919050565b610c2d81610c18565b8114610c3857600080fd5b50565b600081359050610c4a81610c24565b92915050565b600080600080600080600060e0888a031215610c6f57610c6e610b01565b5b6000610c7d8a828b01610b1d565b9750506020610c8e8a828b01610b7b565b9650506040610c9f8a828b01610b1d565b9550506060610cb08a828b01610bbb565b9450506080610cc18a828b01610c03565b93505060a0610cd28a828b01610c3b565b92505060c0610ce38a828b01610b1d565b91505092959891949750929550565b610cfb81610acd565b82525050565b610d0a81610b52565b82525050565b610d1981610b90565b82525050565b610d2881610bd0565b82525050565b610d3781610c18565b82525050565b60c082016000820151610d536000850182610d10565b506020820151610d666020850182610d1f565b506040820151610d796040850182610d2e565b506060820151610d8c6060850182610d01565b506080820151610d9f6080850182610d01565b5060a0820151610db260a0850182610d01565b50505050565b600081519050919050565b600082825260208201905092915050565b60005b83811015610df2578082015181840152602081019050610dd7565b60008484015250505050565b6000601f19601f8301169050919050565b6000610e1a82610db8565b610e248185610dc3565b9350610e34818560208601610dd4565b610e3d81610dfe565b840191505092915050565b60006101c083016000830151610e616000860182610cf2565b506020830151610e746020860182610d01565b506040830151610e876040860182610d01565b506060830151610e9a6060860182610d01565b506080830151610ead6080860182610cf2565b5060a0830151610ec060a0860182610cf2565b5060c0830151610ed360c0860182610d3d565b5060e0830151610ee7610180860182610cf2565b506101008301518482036101a0860152610f018282610e0f565b9150508091505092915050565b60006020820190508181036000830152610f288184610e48565b905092915050565b6000819050919050565b6000610f55610f50610f4b84610b32565b610f30565b610b32565b9050919050565b6000610f6782610f3a565b9050919050565b6000610f7982610f5c565b9050919050565b610f8981610f6e565b82525050565b6000602082019050610fa46000830184610f80565b92915050565b6000610fb582610f3a565b9050919050565b6000610fc782610faa565b9050919050565b610fd781610fbc565b82525050565b6000602082019050610ff26000830184610fce565b92915050565b61100181610b52565b82525050565b600060208201905061101c6000830184610ff8565b92915050565b600082825260208201905092915050565b7f43616c6c2066756e6374696f6e206e6f742066726f6d20706f6f6c0000000000600082015250565b6000611069601b83611022565b915061107482611033565b602082019050919050565b600060208201905081810360008301526110988161105c565b9050919050565b7f4e487b7100000000000000000000000000000000000000000000000000000000600052604160045260246000fd5b7f4e487b7100000000000000000000000000000000000000000000000000000000600052602160045260246000fd5b7f4e487b7100000000000000000000000000000000000000000000000000000000600052603260045260246000fd5b600081519050919050565b600082825260208201905092915050565b6000819050602082019050919050565b60028110611169576111686110ce565b5b50565b600081905061117a82611158565b919050565b600061118a8261116c565b9050919050565b61119a8161117f565b82525050565b600081519050919050565b600082825260208201905092915050565b6000819050602082019050919050565b60006101c0830160008301516111e56000860182610cf2565b5060208301516111f86020860182610d01565b50604083015161120b6040860182610d01565b50606083015161121e6060860182610d01565b5060808301516112316080860182610cf2565b5060a083015161124460a0860182610cf2565b5060c083015161125760c0860182610d3d565b5060e083015161126b610180860182610cf2565b506101008301518482036101a08601526112858282610e0f565b9150508091505092915050565b600061129e83836111cc565b905092915050565b6000602082019050919050565b60006112be826111a0565b6112c881856111ab565b9350836020820285016112da856111bc565b8060005b8581101561131657848403895281516112f78582611292565b9450611302836112a6565b925060208a019950506001810190506112de565b50829750879550505050505092915050565b60006040830160008301516113406000860182611191565b506020830151848203602086015261135882826112b3565b9150508091505092915050565b60006113718383611328565b905092915050565b6000602082019050919050565b60006113918261112c565b61139b8185611137565b9350836020820285016113ad85611148565b8060005b858110156113e957848403895281516113ca8582611365565b94506113d583611379565b925060208a019950506001810190506113b1565b50829750879550505050505092915050565b600060408201905081810360008301526114158185611386565b90506114246020830184610ff8565b9392505050565b60006040820190506114406000830185610ff8565b61144d6020830184610ff8565b9392505050565b60008151905061146381610b06565b92915050565b60006020828403121561147f5761147e610b01565b5b600061148d84828501611454565b9150509291505056fe307830303030303030303030303030303030303030303030303030303030303030303030303030303030a2646970667358221220c2cea5ff0569ecf7c03ce5e25e3ff2b9256cef6229a3261c32bd676fb8b5000264736f6c63430008170033608060405234801561001057600080fd5b506107f2806100206000396000f3fe608060405234801561001057600080fd5b506004361061002b5760003560e01c8063e01bd77414610030575b600080fd5b61004a60048036038101906100459190610760565b61004c565b005b610055826100ae565b61005d6100b1565b60008190508073ffffffffffffffffffffffffffffffffffffffff166108fc479081150290604051600060405180830381858888f193505050501580156100a8573d6000803e3d6000fd5b50505050565b50565b565b6000604051905090565b600080fd5b600080fd5b600080fd5b6000601f19601f8301169050919050565b7f4e487b7100000000000000000000000000000000000000000000000000000000600052604160045260246000fd5b610115826100cc565b810181811067ffffffffffffffff82111715610134576101336100dd565b5b80604052505050565b60006101476100b3565b9050610153828261010c565b919050565b600067ffffffffffffffff821115610173576101726100dd565b5b602082029050602081019050919050565b600080fd5b600080fd5b600080fd5b600281106101a057600080fd5b50565b6000813590506101b281610193565b92915050565b600067ffffffffffffffff8211156101d3576101d26100dd565b5b602082029050602081019050919050565b6000819050919050565b6101f7816101e4565b811461020257600080fd5b50565b600081359050610214816101ee565b92915050565b600073ffffffffffffffffffffffffffffffffffffffff82169050919050565b60006102458261021a565b9050919050565b6102558161023a565b811461026057600080fd5b50565b6000813590506102728161024c565b92915050565b600067ffffffffffffffff82169050919050565b61029581610278565b81146102a057600080fd5b50565b6000813590506102b28161028c565b92915050565b60006fffffffffffffffffffffffffffffffff82169050919050565b6102dd816102b8565b81146102e857600080fd5b50565b6000813590506102fa816102d4565b92915050565b60008115159050919050565b61031581610300565b811461032057600080fd5b50565b6000813590506103328161030c565b92915050565b600060c0828403121561034e5761034d610189565b5b61035860c061013d565b90506000610368848285016102a3565b600083015250602061037c848285016102eb565b602083015250604061039084828501610323565b60408301525060606103a484828501610263565b60608301525060806103b884828501610263565b60808301525060a06103cc84828501610263565b60a08301525092915050565b600080fd5b600067ffffffffffffffff8211156103f8576103f76100dd565b5b610401826100cc565b9050602081019050919050565b82818337600083830152505050565b600061043061042b846103dd565b61013d565b90508281526020810184848401111561044c5761044b6103d8565b5b61045784828561040e565b509392505050565b600082601f830112610474576104736100c7565b5b813561048484826020860161041d565b91505092915050565b60006101c082840312156104a4576104a3610189565b5b6104af61012061013d565b905060006104bf84828501610205565b60008301525060206104d384828501610263565b60208301525060406104e784828501610263565b60408301525060606104fb84828501610263565b606083015250608061050f84828501610205565b60808301525060a061052384828501610205565b60a08301525060c061053784828501610338565b60c08301525061018061054c84828501610205565b60e0830152506101a082013567ffffffffffffffff8111156105715761057061018e565b5b61057d8482850161045f565b6101008301525092915050565b600061059d610598846101b8565b61013d565b905080838252602082019050602084028301858111156105c0576105bf610184565b5b835b8181101561060757803567ffffffffffffffff8111156105e5576105e46100c7565b5b8086016105f2898261048d565b855260208501945050506020810190506105c2565b5050509392505050565b600082601f830112610626576106256100c7565b5b813561063684826020860161058a565b91505092915050565b60006040828403121561065557610654610189565b5b61065f604061013d565b9050600061066f848285016101a3565b600083015250602082013567ffffffffffffffff8111156106935761069261018e565b5b61069f84828501610611565b60208301525092915050565b60006106be6106b984610158565b61013d565b905080838252602082019050602084028301858111156106e1576106e0610184565b5b835b8181101561072857803567ffffffffffffffff811115610706576107056100c7565b5b808601610713898261063f565b855260208501945050506020810190506106e3565b5050509392505050565b600082601f830112610747576107466100c7565b5b81356107578482602086016106ab565b91505092915050565b60008060408385031215610777576107766100bd565b5b600083013567ffffffffffffffff811115610795576107946100c2565b5b6107a185828601610732565b92505060206107b285828601610263565b915050925092905056fea2646970667358221220c5c9842f5efaeb7e8bf113edcc2e14c17e61988d2a4def30ce97f866d997206364736f6c63430008170033608060405234801561001057600080fd5b506101d0806100206000396000f3fe6080604052600436106100225760003560e01c8063bba06f271461002e57610029565b3661002957005b600080fd5b34801561003a57600080fd5b5061005560048036038101906100509190610126565b61006b565b604051610062919061017f565b60405180910390f35b6000808390508073ffffffffffffffffffffffffffffffffffffffff166108fc479081150290604051600060405180830381858888f193505050501580156100b7573d6000803e3d6000fd5b50604591505092915050565b600080fd5b600073ffffffffffffffffffffffffffffffffffffffff82169050919050565b60006100f3826100c8565b9050919050565b610103816100e8565b811461010e57600080fd5b50565b600081359050610120816100fa565b92915050565b6000806040838503121561013d5761013c6100c3565b5b600061014b85828601610111565b925050602061015c85828601610111565b9150509250929050565b6000819050919050565b61017981610166565b82525050565b60006020820190506101946000830184610170565b9291505056fea26469706673582212208162b6b44667ecd2ec3b20ed0bcdb93b6b52307bb8ba20c3d73ed544d2d8d29164736f6c63430008170033",
  "linkReferences": {},
  "deployedLinkReferences": {}
}