{
  "_format": "hh-sol-artifact-1",
  "contractName": "Vault",
  "sourceName": "contracts/Vault.sol",
  "abi": [
    {
      "inputs": [],
      "stateMutability": "nonpayable",
      "type": "constructor"
    },
    {
      "inputs": [
        {
          "internalType": "address",
          "name": "spender",
          "type": "address"
        },
        {
          "internalType": "uint256",
          "name": "allowance",
          "type": "uint256"
        },
        {
          "internalType": "uint256",
          "name": "needed",
          "type": "uint256"
        }
      ],
      "name": "ERC20InsufficientAllowance",
      "type": "error"
    },
    {
      "inputs": [
        {
          "internalType": "address",
          "name": "sender",
          "type": "address"
        },
        {
          "internalType": "uint256",
          "name": "balance",
          "type": "uint256"
        },
        {
          "internalType": "uint256",
          "name": "needed",
          "type": "uint256"
        }
      ],
      "name": "ERC20InsufficientBalance",
      "type": "error"
    },
    {
      "inputs": [
        {
          "internalType": "address",
          "name": "approver",
          "type": "address"
        }
      ],
      "name": "ERC20InvalidApprover",
      "type": "error"
    },
    {
      "inputs": [
        {
          "internalType": "address",
          "name": "receiver",
          "type": "address"
        }
      ],
      "name": "ERC20InvalidReceiver",
      "type": "error"
    },
    {
      "inputs": [
        {
          "internalType": "address",
          "name": "sender",
          "type": "address"
        }
      ],
      "name": "ERC20InvalidSender",
      "type": "error"
    },
    {
      "inputs": [
        {
          "internalType": "address",
          "name": "spender",
          "type": "address"
        }
      ],
      "name": "ERC20InvalidSpender",
      "type": "error"
    },
    {
      "anonymous": false,
      "inputs": [
        {
          "indexed": true,
          "internalType": "address",
          "name": "owner",
          "type": "address"
        },
        {
          "indexed": true,
          "internalType": "address",
          "name": "spender",
          "type": "address"
        },
        {
          "indexed": false,
          "internalType": "uint256",
          "name": "value",
          "type": "uint256"
        }
      ],
      "name": "Approval",
      "type": "event"
    },
    {
      "anonymous": false,
      "inputs": [
        {
          "indexed": true,
          "internalType": "address",
          "name": "from",
          "type": "address"
        },
        {
          "indexed": true,
          "internalType": "address",
          "name": "to",
          "type": "address"
        },
        {
          "indexed": false,
          "internalType": "uint256",
          "name": "value",
          "type": "uint256"
        }
      ],
      "name": "Transfer",
      "type": "event"
    },
    {
      "inputs": [
        {
          "internalType": "address",
          "name": "owner",
          "type": "address"
        },
        {
          "internalType": "address",
          "name": "spender",
          "type": "address"
        }
      ],
      "name": "allowance",
      "outputs": [
        {
          "internalType": "uint256",
          "name": "",
          "type": "uint256"
        }
      ],
      "stateMutability": "view",
      "type": "function"
    },
    {
      "inputs": [
        {
          "internalType": "address",
          "name": "spender",
          "type": "address"
        },
        {
          "internalType": "uint256",
          "name": "value",
          "type": "uint256"
        }
      ],
      "name": "approve",
      "outputs": [
        {
          "internalType": "bool",
          "name": "",
          "type": "bool"
        }
      ],
      "stateMutability": "nonpayable",
      "type": "function"
    },
    {
      "inputs": [
        {
          "internalType": "address",
          "name": "account",
          "type": "address"
        }
      ],
      "name": "balanceOf",
      "outputs": [
        {
          "internalType": "uint256",
          "name": "",
          "type": "uint256"
        }
      ],
      "stateMutability": "view",
      "type": "function"
    },
    {
      "inputs": [],
      "name": "decimals",
      "outputs": [
        {
          "internalType": "uint8",
          "name": "",
          "type": "uint8"
        }
      ],
      "stateMutability": "view",
      "type": "function"
    },
    {
      "inputs": [],
      "name": "deposit",
      "outputs": [],
      "stateMutability": "payable",
      "type": "function"
    },
    {
      "inputs": [],
      "name": "getFromStrategy",
      "outputs": [],
      "stateMutability": "nonpayable",
      "type": "function"
    },
    {
      "inputs": [],
      "name": "getStrategyBalance",
      "outputs": [
        {
          "internalType": "uint256",
          "name": "amount",
          "type": "uint256"
        }
      ],
      "stateMutability": "view",
      "type": "function"
    },
    {
      "inputs": [],
      "name": "name",
      "outputs": [
        {
          "internalType": "string",
          "name": "",
          "type": "string"
        }
      ],
      "stateMutability": "view",
      "type": "function"
    },
    {
      "inputs": [],
      "name": "owner",
      "outputs": [
        {
          "internalType": "address",
          "name": "",
          "type": "address"
        }
      ],
      "stateMutability": "view",
      "type": "function"
    },
    {
      "inputs": [],
      "name": "returnTime",
      "outputs": [
        {
          "internalType": "uint256",
          "name": "",
          "type": "uint256"
        }
      ],
      "stateMutability": "view",
      "type": "function"
    },
    {
      "inputs": [],
      "name": "sendToStrategy",
      "outputs": [],
      "stateMutability": "nonpayable",
      "type": "function"
    },
    {
      "inputs": [],
      "name": "startEpoch",
      "outputs": [],
      "stateMutability": "nonpayable",
      "type": "function"
    },
    {
      "inputs": [],
      "name": "symbol",
      "outputs": [
        {
          "internalType": "string",
          "name": "",
          "type": "string"
        }
      ],
      "stateMutability": "view",
      "type": "function"
    },
    {
      "inputs": [],
      "name": "totalSupply",
      "outputs": [
        {
          "internalType": "uint256",
          "name": "",
          "type": "uint256"
        }
      ],
      "stateMutability": "view",
      "type": "function"
    },
    {
      "inputs": [
        {
          "internalType": "address",
          "name": "to",
          "type": "address"
        },
        {
          "internalType": "uint256",
          "name": "value",
          "type": "uint256"
        }
      ],
      "name": "transfer",
      "outputs": [
        {
          "internalType": "bool",
          "name": "",
          "type": "bool"
        }
      ],
      "stateMutability": "nonpayable",
      "type": "function"
    },
    {
      "inputs": [
        {
          "internalType": "address",
          "name": "from",
          "type": "address"
        },
        {
          "internalType": "address",
          "name": "to",
          "type": "address"
        },
        {
          "internalType": "uint256",
          "name": "value",
          "type": "uint256"
        }
      ],
      "name": "transferFrom",
      "outputs": [
        {
          "internalType": "bool",
          "name": "",
          "type": "bool"
        }
      ],
      "stateMutability": "nonpayable",
      "type": "function"
    },
    {
      "inputs": [],
      "name": "withdraw",
      "outputs": [],
      "stateMutability": "nonpayable",
      "type": "function"
    },
    {
      "stateMutability": "payable",
      "type": "receive"
    }
  ],
  "bytecode": "0x6080604052600a60075562015180600a553480156200001d57600080fd5b506040518060400160405280601881526020017f4c69717569646974792050726f766964657220546f6b656e00000000000000008152506040518060400160405280600681526020017f4c502d544b4e000000000000000000000000000000000000000000000000000081525081600390816200009b9190620003f8565b508060049081620000ad9190620003f8565b50505033600560006101000a81548173ffffffffffffffffffffffffffffffffffffffff021916908373ffffffffffffffffffffffffffffffffffffffff16021790555030604051620001009062000170565b6200010c919062000524565b604051809103906000f08015801562000129573d6000803e3d6000fd5b50600660006101000a81548173ffffffffffffffffffffffffffffffffffffffff021916908373ffffffffffffffffffffffffffffffffffffffff16021790555062000541565b611e758062001cf083390190565b600081519050919050565b7f4e487b7100000000000000000000000000000000000000000000000000000000600052604160045260246000fd5b7f4e487b7100000000000000000000000000000000000000000000000000000000600052602260045260246000fd5b600060028204905060018216806200020057607f821691505b602082108103620002165762000215620001b8565b5b50919050565b60008190508160005260206000209050919050565b60006020601f8301049050919050565b600082821b905092915050565b600060088302620002807fffffffffffffffffffffffffffffffffffffffffffffffffffffffffffffffff8262000241565b6200028c868362000241565b95508019841693508086168417925050509392505050565b6000819050919050565b6000819050919050565b6000620002d9620002d3620002cd84620002a4565b620002ae565b620002a4565b9050919050565b6000819050919050565b620002f583620002b8565b6200030d6200030482620002e0565b8484546200024e565b825550505050565b600090565b6200032462000315565b62000331818484620002ea565b505050565b5b8181101562000359576200034d6000826200031a565b60018101905062000337565b5050565b601f821115620003a85762000372816200021c565b6200037d8462000231565b810160208510156200038d578190505b620003a56200039c8562000231565b83018262000336565b50505b505050565b600082821c905092915050565b6000620003cd60001984600802620003ad565b1980831691505092915050565b6000620003e88383620003ba565b9150826002028217905092915050565b62000403826200017e565b67ffffffffffffffff8111156200041f576200041e62000189565b5b6200042b8254620001e7565b620004388282856200035d565b600060209050601f8311600181146200047057600084156200045b578287015190505b620004678582620003da565b865550620004d7565b601f19841662000480866200021c565b60005b82811015620004aa5784890151825560018201915060208501945060208101905062000483565b86831015620004ca5784890151620004c6601f891682620003ba565b8355505b6001600288020188555050505b505050505050565b600073ffffffffffffffffffffffffffffffffffffffff82169050919050565b60006200050c82620004df565b9050919050565b6200051e81620004ff565b82525050565b60006020820190506200053b600083018462000513565b92915050565b61179f80620005516000396000f3fe6080604052600436106101025760003560e01c80638da5cb5b11610095578063a9059cbb11610064578063a9059cbb1461030c578063b90f3f3b14610349578063c99c8efe14610374578063d0e30db01461038b578063dd62ed3e1461039557610109565b80638da5cb5b1461027457806395d89b411461029f57806398568366146102ca578063a2c8b177146102f557610109565b8063313ce567116100d1578063313ce567146101de5780633ccfd60b1461020957806365344bbd1461022057806370a082311461023757610109565b806306fdde031461010e578063095ea7b31461013957806318160ddd1461017657806323b872dd146101a157610109565b3661010957005b600080fd5b34801561011a57600080fd5b506101236103d2565b60405161013091906112db565b60405180910390f35b34801561014557600080fd5b50610160600480360381019061015b9190611396565b610464565b60405161016d91906113f1565b60405180910390f35b34801561018257600080fd5b5061018b610487565b604051610198919061141b565b60405180910390f35b3480156101ad57600080fd5b506101c860048036038101906101c39190611436565b610491565b6040516101d591906113f1565b60405180910390f35b3480156101ea57600080fd5b506101f36104c0565b60405161020091906114a5565b60405180910390f35b34801561021557600080fd5b5061021e6104c9565b005b34801561022c57600080fd5b5061023561065f565b005b34801561024357600080fd5b5061025e600480360381019061025991906114c0565b610797565b60405161026b919061141b565b60405180910390f35b34801561028057600080fd5b506102896107df565b60405161029691906114fc565b60405180910390f35b3480156102ab57600080fd5b506102b4610805565b6040516102c191906112db565b60405180910390f35b3480156102d657600080fd5b506102df610897565b6040516102ec919061141b565b60405180910390f35b34801561030157600080fd5b5061030a61089f565b005b34801561031857600080fd5b50610333600480360381019061032e9190611396565b610902565b60405161034091906113f1565b60405180910390f35b34801561035557600080fd5b5061035e610925565b60405161036b919061141b565b60405180910390f35b34801561038057600080fd5b506103896109bd565b005b610393610a37565b005b3480156103a157600080fd5b506103bc60048036038101906103b79190611517565b610b22565b6040516103c9919061141b565b60405180910390f35b6060600380546103e190611586565b80601f016020809104026020016040519081016040528092919081815260200182805461040d90611586565b801561045a5780601f1061042f5761010080835404028352916020019161045a565b820191906000526020600020905b81548152906001019060200180831161043d57829003601f168201915b5050505050905090565b60008061046f610ba9565b905061047c818585610bb1565b600191505092915050565b6000600254905090565b60008061049c610ba9565b90506104a9858285610bc3565b6104b4858585610c57565b60019150509392505050565b60006012905090565b42600a546009546104da91906115e6565b106104e457600080fd5b600033905060003073ffffffffffffffffffffffffffffffffffffffff166370a08231336040518263ffffffff1660e01b815260040161052491906114fc565b602060405180830381865afa158015610541573d6000803e3d6000fd5b505050506040513d601f19601f82011682018060405250810190610565919061162f565b90506000811161057457600080fd5b60003073ffffffffffffffffffffffffffffffffffffffff166318160ddd6040518163ffffffff1660e01b8152600401602060405180830381865afa1580156105c1573d6000803e3d6000fd5b505050506040513d601f19601f820116820180604052508101906105e5919061162f565b9050600047905060008282856105fb919061165c565b61060591906116cd565b90506106118585610d4b565b8473ffffffffffffffffffffffffffffffffffffffff166108fc829081150290604051600060405180830381858888f19350505050158015610657573d6000803e3d6000fd5b505050505050565b60006008541161066e57600080fd5b600660009054906101000a900473ffffffffffffffffffffffffffffffffffffffff1673ffffffffffffffffffffffffffffffffffffffff1663a3adb41f6040518163ffffffff1660e01b8152600401600060405180830381600087803b1580156106d857600080fd5b505af11580156106ec573d6000803e3d6000fd5b5050505060006008544761070091906116fe565b90506000811115610794576000600560009054906101000a900473ffffffffffffffffffffffffffffffffffffffff1690508073ffffffffffffffffffffffffffffffffffffffff166108fc60646007548561075c919061165c565b61076691906116cd565b9081150290604051600060405180830381858888f19350505050158015610791573d6000803e3d6000fd5b50505b50565b60008060008373ffffffffffffffffffffffffffffffffffffffff1673ffffffffffffffffffffffffffffffffffffffff168152602001908152602001600020549050919050565b600560009054906101000a900473ffffffffffffffffffffffffffffffffffffffff1681565b60606004805461081490611586565b80601f016020809104026020016040519081016040528092919081815260200182805461084090611586565b801561088d5780601f106108625761010080835404028352916020019161088d565b820191906000526020600020905b81548152906001019060200180831161087057829003601f168201915b5050505050905090565b600042905090565b600560009054906101000a900473ffffffffffffffffffffffffffffffffffffffff1673ffffffffffffffffffffffffffffffffffffffff163373ffffffffffffffffffffffffffffffffffffffff16146108f957600080fd5b42600981905550565b60008061090d610ba9565b905061091a818585610c57565b600191505092915050565b6000600660009054906101000a900473ffffffffffffffffffffffffffffffffffffffff1673ffffffffffffffffffffffffffffffffffffffff166312065fe06040518163ffffffff1660e01b8152600401602060405180830381865afa158015610994573d6000803e3d6000fd5b505050506040513d601f19601f820116820180604052508101906109b8919061162f565b905090565b6000600660009054906101000a900473ffffffffffffffffffffffffffffffffffffffff169050476008819055508073ffffffffffffffffffffffffffffffffffffffff166108fc6008549081150290604051600060405180830381858888f19350505050158015610a33573d6000803e3d6000fd5b5050565b42600a54600954610a4891906115e6565b10610a5257600080fd5b600034905060008111610a6457600080fd5b60003073ffffffffffffffffffffffffffffffffffffffff166318160ddd6040518163ffffffff1660e01b8152600401602060405180830381865afa158015610ab1573d6000803e3d6000fd5b505050506040513d601f19601f82011682018060405250810190610ad5919061162f565b905060008247610ae591906116fe565b90506000808303610af857839050610b12565b818385610b05919061165c565b610b0f91906116cd565b90505b610b1c3382610dcd565b50505050565b6000600160008473ffffffffffffffffffffffffffffffffffffffff1673ffffffffffffffffffffffffffffffffffffffff16815260200190815260200160002060008373ffffffffffffffffffffffffffffffffffffffff1673ffffffffffffffffffffffffffffffffffffffff16815260200190815260200160002054905092915050565b600033905090565b610bbe8383836001610e4f565b505050565b6000610bcf8484610b22565b90507fffffffffffffffffffffffffffffffffffffffffffffffffffffffffffffffff8114610c515781811015610c41578281836040517ffb8f41b2000000000000000000000000000000000000000000000000000000008152600401610c3893929190611732565b60405180910390fd5b610c5084848484036000610e4f565b5b50505050565b600073ffffffffffffffffffffffffffffffffffffffff168373ffffffffffffffffffffffffffffffffffffffff1603610cc95760006040517f96c6fd1e000000000000000000000000000000000000000000000000000000008152600401610cc091906114fc565b60405180910390fd5b600073ffffffffffffffffffffffffffffffffffffffff168273ffffffffffffffffffffffffffffffffffffffff1603610d3b5760006040517fec442f05000000000000000000000000000000000000000000000000000000008152600401610d3291906114fc565b60405180910390fd5b610d46838383611026565b505050565b600073ffffffffffffffffffffffffffffffffffffffff168273ffffffffffffffffffffffffffffffffffffffff1603610dbd5760006040517f96c6fd1e000000000000000000000000000000000000000000000000000000008152600401610db491906114fc565b60405180910390fd5b610dc982600083611026565b5050565b600073ffffffffffffffffffffffffffffffffffffffff168273ffffffffffffffffffffffffffffffffffffffff1603610e3f5760006040517fec442f05000000000000000000000000000000000000000000000000000000008152600401610e3691906114fc565b60405180910390fd5b610e4b60008383611026565b5050565b600073ffffffffffffffffffffffffffffffffffffffff168473ffffffffffffffffffffffffffffffffffffffff1603610ec15760006040517fe602df05000000000000000000000000000000000000000000000000000000008152600401610eb891906114fc565b60405180910390fd5b600073ffffffffffffffffffffffffffffffffffffffff168373ffffffffffffffffffffffffffffffffffffffff1603610f335760006040517f94280d62000000000000000000000000000000000000000000000000000000008152600401610f2a91906114fc565b60405180910390fd5b81600160008673ffffffffffffffffffffffffffffffffffffffff1673ffffffffffffffffffffffffffffffffffffffff16815260200190815260200160002060008573ffffffffffffffffffffffffffffffffffffffff1673ffffffffffffffffffffffffffffffffffffffff168152602001908152602001600020819055508015611020578273ffffffffffffffffffffffffffffffffffffffff168473ffffffffffffffffffffffffffffffffffffffff167f8c5be1e5ebec7d5bd14f71427d1e84f3dd0314c0f7b2291e5b200ac8c7c3b92584604051611017919061141b565b60405180910390a35b50505050565b600073ffffffffffffffffffffffffffffffffffffffff168373ffffffffffffffffffffffffffffffffffffffff160361107857806002600082825461106c91906115e6565b9250508190555061114b565b60008060008573ffffffffffffffffffffffffffffffffffffffff1673ffffffffffffffffffffffffffffffffffffffff16815260200190815260200160002054905081811015611104578381836040517fe450d38c0000000000000000000000000000000000000000000000000000000081526004016110fb93929190611732565b60405180910390fd5b8181036000808673ffffffffffffffffffffffffffffffffffffffff1673ffffffffffffffffffffffffffffffffffffffff16815260200190815260200160002081905550505b600073ffffffffffffffffffffffffffffffffffffffff168273ffffffffffffffffffffffffffffffffffffffff160361119457806002600082825403925050819055506111e1565b806000808473ffffffffffffffffffffffffffffffffffffffff1673ffffffffffffffffffffffffffffffffffffffff168152602001908152602001600020600082825401925050819055505b8173ffffffffffffffffffffffffffffffffffffffff168373ffffffffffffffffffffffffffffffffffffffff167fddf252ad1be2c89b69c2b068fc378daa952ba7f163c4a11628f55a4df523b3ef8360405161123e919061141b565b60405180910390a3505050565b600081519050919050565b600082825260208201905092915050565b60005b8381101561128557808201518184015260208101905061126a565b60008484015250505050565b6000601f19601f8301169050919050565b60006112ad8261124b565b6112b78185611256565b93506112c7818560208601611267565b6112d081611291565b840191505092915050565b600060208201905081810360008301526112f581846112a2565b905092915050565b600080fd5b600073ffffffffffffffffffffffffffffffffffffffff82169050919050565b600061132d82611302565b9050919050565b61133d81611322565b811461134857600080fd5b50565b60008135905061135a81611334565b92915050565b6000819050919050565b61137381611360565b811461137e57600080fd5b50565b6000813590506113908161136a565b92915050565b600080604083850312156113ad576113ac6112fd565b5b60006113bb8582860161134b565b92505060206113cc85828601611381565b9150509250929050565b60008115159050919050565b6113eb816113d6565b82525050565b600060208201905061140660008301846113e2565b92915050565b61141581611360565b82525050565b6000602082019050611430600083018461140c565b92915050565b60008060006060848603121561144f5761144e6112fd565b5b600061145d8682870161134b565b935050602061146e8682870161134b565b925050604061147f86828701611381565b9150509250925092565b600060ff82169050919050565b61149f81611489565b82525050565b60006020820190506114ba6000830184611496565b92915050565b6000602082840312156114d6576114d56112fd565b5b60006114e48482850161134b565b91505092915050565b6114f681611322565b82525050565b600060208201905061151160008301846114ed565b92915050565b6000806040838503121561152e5761152d6112fd565b5b600061153c8582860161134b565b925050602061154d8582860161134b565b9150509250929050565b7f4e487b7100000000000000000000000000000000000000000000000000000000600052602260045260246000fd5b6000600282049050600182168061159e57607f821691505b6020821081036115b1576115b0611557565b5b50919050565b7f4e487b7100000000000000000000000000000000000000000000000000000000600052601160045260246000fd5b60006115f182611360565b91506115fc83611360565b9250828201905080821115611614576116136115b7565b5b92915050565b6000815190506116298161136a565b92915050565b600060208284031215611645576116446112fd565b5b60006116538482850161161a565b91505092915050565b600061166782611360565b915061167283611360565b925082820261168081611360565b91508282048414831517611697576116966115b7565b5b5092915050565b7f4e487b7100000000000000000000000000000000000000000000000000000000600052601260045260246000fd5b60006116d882611360565b91506116e383611360565b9250826116f3576116f261169e565b5b828204905092915050565b600061170982611360565b915061171483611360565b925082820390508181111561172c5761172b6115b7565b5b92915050565b600060608201905061174760008301866114ed565b611754602083018561140c565b611761604083018461140c565b94935050505056fea26469706673582212203751c9ae6e86ebd9202cfa6784524113780fa98218a3250c268d567830f3042864736f6c6343000817003360806040523480156200001157600080fd5b5060405162001e7538038062001e75833981810160405281019062000037919062000129565b806000806101000a81548173ffffffffffffffffffffffffffffffffffffffff021916908373ffffffffffffffffffffffffffffffffffffffff16021790555033600160006101000a81548173ffffffffffffffffffffffffffffffffffffffff021916908373ffffffffffffffffffffffffffffffffffffffff160217905550506200015b565b600080fd5b600073ffffffffffffffffffffffffffffffffffffffff82169050919050565b6000620000f182620000c4565b9050919050565b6200010381620000e4565b81146200010f57600080fd5b50565b6000815190506200012381620000f8565b92915050565b600060208284031215620001425762000141620000bf565b5b6000620001528482850162000112565b91505092915050565b611d0a806200016b6000396000f3fe60806040526004361061007f5760003560e01c80638b4556ae1161004e5780638b4556ae146101635780638da5cb5b146101a0578063a3adb41f146101cb578063d84487a6146101e257610086565b806312065fe01461008b57806316a0b548146100b65780632e34b897146100f3578063532785c71461013857610086565b3661008657005b600080fd5b34801561009757600080fd5b506100a06101f9565b6040516100ad9190610faa565b60405180910390f35b3480156100c257600080fd5b506100dd60048036038101906100d89190611114565b610201565b6040516100ea91906113d2565b60405180910390f35b3480156100ff57600080fd5b5061011a600480360381019061011591906113f4565b6103e6565b60405161012f999897969594939291906114f5565b60405180910390f35b34801561014457600080fd5b5061014d6106cf565b60405161015a91906115e9565b60405180910390f35b34801561016f57600080fd5b5061018a600480360381019061018591906113f4565b6106f5565b604051610197919061167b565b60405180910390f35b3480156101ac57600080fd5b506101b5610730565b6040516101c29190611696565b60405180910390f35b3480156101d757600080fd5b506101e0610756565b005b3480156101ee57600080fd5b506101f76107c6565b005b600047905090565b610209610e3b565b610211610e3b565b888160000181815250506000816020019073ffffffffffffffffffffffffffffffffffffffff16908173ffffffffffffffffffffffffffffffffffffffff168152505087816040019073ffffffffffffffffffffffffffffffffffffffff16908173ffffffffffffffffffffffffffffffffffffffff16815250506000816060019073ffffffffffffffffffffffffffffffffffffffff16908173ffffffffffffffffffffffffffffffffffffffff16815250506000816080018181525050868160a00181815250506040518060c001604052808767ffffffffffffffff168152602001866fffffffffffffffffffffffffffffffff16815260200185151581526020017382af49447d8a07e3bd95bd0d56f35241523fbab173ffffffffffffffffffffffffffffffffffffffff16815260200173af88d065e77c8cc2239327c5edb3a432268e583173ffffffffffffffffffffffffffffffffffffffff16815260200173af88d065e77c8cc2239327c5edb3a432268e583173ffffffffffffffffffffffffffffffffffffffff168152508160c00181905250828160e00181815250506040518060600160405280602a8152602001611cab602a913981610100018190525080915050979650505050505050565b600481815481106103f657600080fd5b90600052602060002090600c02016000915090508060000154908060010160009054906101000a900473ffffffffffffffffffffffffffffffffffffffff16908060020160009054906101000a900473ffffffffffffffffffffffffffffffffffffffff16908060030160009054906101000a900473ffffffffffffffffffffffffffffffffffffffff1690806004015490806005015490806006016040518060c00160405290816000820160009054906101000a900467ffffffffffffffff1667ffffffffffffffff1667ffffffffffffffff1681526020016000820160089054906101000a90046fffffffffffffffffffffffffffffffff166fffffffffffffffffffffffffffffffff166fffffffffffffffffffffffffffffffff1681526020016000820160189054906101000a900460ff161515151581526020016001820160009054906101000a900473ffffffffffffffffffffffffffffffffffffffff1673ffffffffffffffffffffffffffffffffffffffff1673ffffffffffffffffffffffffffffffffffffffff1681526020016002820160009054906101000a900473ffffffffffffffffffffffffffffffffffffffff1673ffffffffffffffffffffffffffffffffffffffff1673ffffffffffffffffffffffffffffffffffffffff1681526020016003820160009054906101000a900473ffffffffffffffffffffffffffffffffffffffff1673ffffffffffffffffffffffffffffffffffffffff1673ffffffffffffffffffffffffffffffffffffffff16815250509080600a01549080600b01805461064c906116e0565b80601f0160208091040260200160405190810160405280929190818152602001828054610678906116e0565b80156106c55780601f1061069a576101008083540402835291602001916106c5565b820191906000526020600020905b8154815290600101906020018083116106a857829003601f168201915b5050505050905089565b600260009054906101000a900473ffffffffffffffffffffffffffffffffffffffff1681565b6003818154811061070557600080fd5b90600052602060002090600202016000915090508060000160009054906101000a900460ff16905081565b600160009054906101000a900473ffffffffffffffffffffffffffffffffffffffff1681565b60008060009054906101000a900473ffffffffffffffffffffffffffffffffffffffff1690508073ffffffffffffffffffffffffffffffffffffffff166108fc479081150290604051600060405180830381858888f193505050501580156107c2573d6000803e3d6000fd5b5050565b6107ce610ecf565b6107d6610e3b565b60008160000181815250506000816020019073ffffffffffffffffffffffffffffffffffffffff16908173ffffffffffffffffffffffffffffffffffffffff16815250506000816040019073ffffffffffffffffffffffffffffffffffffffff16908173ffffffffffffffffffffffffffffffffffffffff16815250506000816060019073ffffffffffffffffffffffffffffffffffffffff16908173ffffffffffffffffffffffffffffffffffffffff1681525050600081608001818152505060008160a00181815250506040518060c001604052806365aa2c0067ffffffffffffffff168152602001689d3595ab2438d000006fffffffffffffffffffffffffffffffff1681526020016000151581526020017382af49447d8a07e3bd95bd0d56f35241523fbab173ffffffffffffffffffffffffffffffffffffffff16815260200173af88d065e77c8cc2239327c5edb3a432268e583173ffffffffffffffffffffffffffffffffffffffff16815260200173af88d065e77c8cc2239327c5edb3a432268e583173ffffffffffffffffffffffffffffffffffffffff168152508160c0018190525060008160e00181815250506040518060600160405280602a8152602001611cab602a91398161010001819052506001826000019060018111156109c7576109c6611604565b5b908160018111156109db576109da611604565b5b815250506004805480602002602001604051908101604052809291908181526020016000905b82821015610d9d57838290600052602060002090600c020160405180610120016040529081600082015481526020016001820160009054906101000a900473ffffffffffffffffffffffffffffffffffffffff1673ffffffffffffffffffffffffffffffffffffffff1673ffffffffffffffffffffffffffffffffffffffff1681526020016002820160009054906101000a900473ffffffffffffffffffffffffffffffffffffffff1673ffffffffffffffffffffffffffffffffffffffff1673ffffffffffffffffffffffffffffffffffffffff1681526020016003820160009054906101000a900473ffffffffffffffffffffffffffffffffffffffff1673ffffffffffffffffffffffffffffffffffffffff1673ffffffffffffffffffffffffffffffffffffffff1681526020016004820154815260200160058201548152602001600682016040518060c00160405290816000820160009054906101000a900467ffffffffffffffff1667ffffffffffffffff1667ffffffffffffffff1681526020016000820160089054906101000a90046fffffffffffffffffffffffffffffffff166fffffffffffffffffffffffffffffffff166fffffffffffffffffffffffffffffffff1681526020016000820160189054906101000a900460ff161515151581526020016001820160009054906101000a900473ffffffffffffffffffffffffffffffffffffffff1673ffffffffffffffffffffffffffffffffffffffff1673ffffffffffffffffffffffffffffffffffffffff1681526020016002820160009054906101000a900473ffffffffffffffffffffffffffffffffffffffff1673ffffffffffffffffffffffffffffffffffffffff1673ffffffffffffffffffffffffffffffffffffffff1681526020016003820160009054906101000a900473ffffffffffffffffffffffffffffffffffffffff1673ffffffffffffffffffffffffffffffffffffffff1673ffffffffffffffffffffffffffffffffffffffff16815250508152602001600a8201548152602001600b82018054610d0c906116e0565b80601f0160208091040260200160405190810160405280929190818152602001828054610d38906116e0565b8015610d855780601f10610d5a57610100808354040283529160200191610d85565b820191906000526020600020905b815481529060010190602001808311610d6857829003601f168201915b50505050508152505081526020019060010190610a01565b505050508260200181905250600260009054906101000a900473ffffffffffffffffffffffffffffffffffffffff1673ffffffffffffffffffffffffffffffffffffffff166314b6c4c660036040518263ffffffff1660e01b8152600401610e059190611c88565b600060405180830381600087803b158015610e1f57600080fd5b505af1158015610e33573d6000803e3d6000fd5b505050505050565b60405180610120016040528060008152602001600073ffffffffffffffffffffffffffffffffffffffff168152602001600073ffffffffffffffffffffffffffffffffffffffff168152602001600073ffffffffffffffffffffffffffffffffffffffff1681526020016000815260200160008152602001610ebb610efb565b815260200160008152602001606081525090565b604051806040016040528060006001811115610eee57610eed611604565b5b8152602001606081525090565b6040518060c00160405280600067ffffffffffffffff16815260200160006fffffffffffffffffffffffffffffffff168152602001600015158152602001600073ffffffffffffffffffffffffffffffffffffffff168152602001600073ffffffffffffffffffffffffffffffffffffffff168152602001600073ffffffffffffffffffffffffffffffffffffffff1681525090565b6000819050919050565b610fa481610f91565b82525050565b6000602082019050610fbf6000830184610f9b565b92915050565b600080fd5b610fd381610f91565b8114610fde57600080fd5b50565b600081359050610ff081610fca565b92915050565b600073ffffffffffffffffffffffffffffffffffffffff82169050919050565b600061102182610ff6565b9050919050565b61103181611016565b811461103c57600080fd5b50565b60008135905061104e81611028565b92915050565b600067ffffffffffffffff82169050919050565b61107181611054565b811461107c57600080fd5b50565b60008135905061108e81611068565b92915050565b60006fffffffffffffffffffffffffffffffff82169050919050565b6110b981611094565b81146110c457600080fd5b50565b6000813590506110d6816110b0565b92915050565b60008115159050919050565b6110f1816110dc565b81146110fc57600080fd5b50565b60008135905061110e816110e8565b92915050565b600080600080600080600060e0888a03121561113357611132610fc5565b5b60006111418a828b01610fe1565b97505060206111528a828b0161103f565b96505060406111638a828b01610fe1565b95505060606111748a828b0161107f565b94505060806111858a828b016110c7565b93505060a06111968a828b016110ff565b92505060c06111a78a828b01610fe1565b91505092959891949750929550565b6111bf81610f91565b82525050565b6111ce81611016565b82525050565b6111dd81611054565b82525050565b6111ec81611094565b82525050565b6111fb816110dc565b82525050565b60c08201600082015161121760008501826111d4565b50602082015161122a60208501826111e3565b50604082015161123d60408501826111f2565b50606082015161125060608501826111c5565b50608082015161126360808501826111c5565b5060a082015161127660a08501826111c5565b50505050565b600081519050919050565b600082825260208201905092915050565b60005b838110156112b657808201518184015260208101905061129b565b60008484015250505050565b6000601f19601f8301169050919050565b60006112de8261127c565b6112e88185611287565b93506112f8818560208601611298565b611301816112c2565b840191505092915050565b60006101c08301600083015161132560008601826111b6565b50602083015161133860208601826111c5565b50604083015161134b60408601826111c5565b50606083015161135e60608601826111c5565b50608083015161137160808601826111b6565b5060a083015161138460a08601826111b6565b5060c083015161139760c0860182611201565b5060e08301516113ab6101808601826111b6565b506101008301518482036101a08601526113c582826112d3565b9150508091505092915050565b600060208201905081810360008301526113ec818461130c565b905092915050565b60006020828403121561140a57611409610fc5565b5b600061141884828501610fe1565b91505092915050565b61142a81611016565b82525050565b60c08201600082015161144660008501826111d4565b50602082015161145960208501826111e3565b50604082015161146c60408501826111f2565b50606082015161147f60608501826111c5565b50608082015161149260808501826111c5565b5060a08201516114a560a08501826111c5565b50505050565b600082825260208201905092915050565b60006114c78261127c565b6114d181856114ab565b93506114e1818560208601611298565b6114ea816112c2565b840191505092915050565b60006101c08201905061150b600083018c610f9b565b611518602083018b611421565b611525604083018a611421565b6115326060830189611421565b61153f6080830188610f9b565b61154c60a0830187610f9b565b61155960c0830186611430565b611567610180830185610f9b565b8181036101a083015261157a81846114bc565b90509a9950505050505050505050565b6000819050919050565b60006115af6115aa6115a584610ff6565b61158a565b610ff6565b9050919050565b60006115c182611594565b9050919050565b60006115d3826115b6565b9050919050565b6115e3816115c8565b82525050565b60006020820190506115fe60008301846115da565b92915050565b7f4e487b7100000000000000000000000000000000000000000000000000000000600052602160045260246000fd5b6002811061164457611643611604565b5b50565b600081905061165582611633565b919050565b600061166582611647565b9050919050565b6116758161165a565b82525050565b6000602082019050611690600083018461166c565b92915050565b60006020820190506116ab6000830184611421565b92915050565b7f4e487b7100000000000000000000000000000000000000000000000000000000600052602260045260246000fd5b600060028204905060018216806116f857607f821691505b60208210810361170b5761170a6116b1565b5b50919050565b600081549050919050565b600082825260208201905092915050565b60008190508160005260206000209050919050565b60008160001c9050919050565b600060ff82169050919050565b600061176f61176a83611742565b61174f565b9050919050565b61177f8161165a565b82525050565b600081549050919050565b600082825260208201905092915050565b60008190508160005260206000209050919050565b6000819050919050565b60006117d36117ce83611742565b6117b6565b9050919050565b600073ffffffffffffffffffffffffffffffffffffffff82169050919050565b600061180d61180883611742565b6117da565b9050919050565b600067ffffffffffffffff82169050919050565b600061183b61183683611742565b611814565b9050919050565b60008160401c9050919050565b60006fffffffffffffffffffffffffffffffff82169050919050565b600061187e61187983611842565b61184f565b9050919050565b60008160c01c9050919050565b600060ff82169050919050565b60006118b26118ad83611885565b611892565b9050919050565b60c0820160008083015490506118ce81611828565b6118db60008601826111d4565b506118e58161186b565b6118f260208601826111e3565b506118fc8161189f565b61190960408601826111f2565b506001830154905061191a816117fa565b61192760608601826111c5565b5060028301549050611938816117fa565b61194560808601826111c5565b5060038301549050611956816117fa565b61196360a08601826111c5565b5050505050565b60008190508160005260206000209050919050565b6000815461198c816116e0565b6119968186611287565b945060018216600081146119b157600181146119c7576119fa565b60ff1983168652811515602002860193506119fa565b6119d08561196a565b60005b838110156119f2578154818901526001820191506020810190506119d3565b808801955050505b50505092915050565b60006101c083016000808401549050611a1b816117c0565b611a2860008701826111b6565b5060018401549050611a39816117fa565b611a4660208701826111c5565b5060028401549050611a57816117fa565b611a6460408701826111c5565b5060038401549050611a75816117fa565b611a8260608701826111c5565b5060048401549050611a93816117c0565b611aa060808701826111b6565b5060058401549050611ab1816117c0565b611abe60a08701826111b6565b5060068401611ad060c08701826118b9565b50600a8401549050611ae1816117c0565b611aef6101808701826111b6565b50600b84018583036101a0870152611b07838261197f565b925050819250505092915050565b6000611b218383611a03565b905092915050565b6000600c82019050919050565b6000611b4182611785565b611b4b8185611790565b935083602082028501611b5d856117a1565b8060005b85811015611b9857848403895281611b798582611b15565b9450611b8483611b29565b925060208a01995050600181019050611b61565b50829750879550505050505092915050565b6000604083016000808401549050611bc18161175c565b611bce6000870182611776565b50600184018583036020870152611be58382611b36565b925050819250505092915050565b6000611bff8383611baa565b905092915050565b6000600282019050919050565b6000611c1f82611711565b611c29818561171c565b935083602082028501611c3b8561172d565b8060005b85811015611c7657848403895281611c578582611bf3565b9450611c6283611c07565b925060208a01995050600181019050611c3f565b50829750879550505050505092915050565b60006020820190508181036000830152611ca28184611c14565b90509291505056fe307830303030303030303030303030303030303030303030303030303030303030303030303030303030a2646970667358221220c1b758e41d7b3db580b5a8010049b5a062f533f1305fb6999c3dc027554c227e64736f6c63430008170033",
  "linkReferences": {},
  "deployedLinkReferences": {}
}